{"abi":[{"type":"function","name":"deductMassFundsV1","inputs":[],"outputs":[],"stateMutability":"nonpayable"},{"type":"function","name":"deductMassFundsV2","inputs":[],"outputs":[],"stateMutability":"nonpayable"},{"type":"function","name":"deductMassFundsV3","inputs":[],"outputs":[{"name":"failedIds","type":"uint256[]","internalType":"uint256[]"}],"stateMutability":"nonpayable"}],"bytecode":{"object":"0x6080604052348015600f57600080fd5b506102168061001f6000396000f3fe608060405234801561001057600080fd5b50600436106100415760003560e01c80632ce01ac9146100465780635517bf3e14610050578063d69afe1e1461006e575b600080fd5b61004e610076565b005b6100586100b6565b60405161006591906101af565b60405180910390f35b61004e61013d565b60005b600a8110156100b357600081815260208190526040812054900361009c57600080fd5b600081815260208190526040812055600101610079565b50565b60408051600a808252610160820190925260609160009190602082016101408036833701905050905060005b600a811015610138576000818152602081905260408120549003610121576001828281518110610114576101146101f3565b6020026020010181815250505b6000818152602081905260408120556001016100e2565b505090565b60005b600a8110156100b35760008181526020819052604081205490036101985760405162461bcd60e51b815260206004820152600b60248201526a456d7074792066756e647360a81b604482015260640160405180910390fd5b600081815260208190526040812055600101610140565b6020808252825182820181905260009190848201906040850190845b818110156101e7578351835292840192918401916001016101cb565b50909695505050505050565b634e487b7160e01b600052603260045260246000fdfea164736f6c6343000819000a","linkReferences":{}},"methodIdentifiers":{"deductMassFundsV1()":"d69afe1e","deductMassFundsV2()":"2ce01ac9","deductMassFundsV3()":"5517bf3e"},"id":19}