{"abi":[{"type":"function","name":"toggleCompleted","inputs":[{"name":"_taskId","type":"uint256","internalType":"uint256"}],"outputs":[],"stateMutability":"nonpayable"}],"bytecode":{"object":"0x6080604052348015600f57600080fd5b50606280601d6000396000f3fe6080604052348015600f57600080fd5b506004361060285760003560e01c8063455f502414602d575b600080fd5b603b6038366004603d565b50565b005b600060208284031215604e57600080fd5b503591905056fea164736f6c6343000819000a","linkReferences":{}},"deployedBytecode":{"object":"0x6080604052348015600f57600080fd5b506004361060285760003560e01c8063455f502414602d575b600080fd5b603b6038366004603d565b50565b005b600060208284031215604e57600080fd5b503591905056fea164736f6c6343000819000a","linkReferences":{}},"methodIdentifiers":{"toggleCompleted(uint256)":"455f5024"},"id":15}