{"abi":[{"type":"function","name":"TWO","inputs":[],"outputs":[{"name":"","type":"uint256","internalType":"uint256"}],"stateMutability":"view"},{"type":"function","name":"callIncrement","inputs":[],"outputs":[],"stateMutability":"nonpayable"},{"type":"function","name":"increment","inputs":[],"outputs":[],"stateMutability":"nonpayable"},{"type":"function","name":"incrementByTwoConstant","inputs":[],"outputs":[],"stateMutability":"nonpayable"},{"type":"function","name":"incrementByTwoMagic","inputs":[],"outputs":[],"stateMutability":"nonpayable"},{"type":"function","name":"number","inputs":[],"outputs":[{"name":"","type":"uint256","internalType":"uint256"}],"stateMutability":"view"},{"type":"function","name":"setNumber","inputs":[{"name":"newNumber","type":"uint256","internalType":"uint256"}],"outputs":[],"stateMutability":"nonpayable"}],"bytecode":{"object":"0x60806040526000805534801561001457600080fd5b50610179806100246000396000f3fe608060405234801561001057600080fd5b506004361061007d5760003560e01c8063452707c11161005b578063452707c1146100b95780637b74087e146100b95780638381f58a146100c1578063d09de08a146100ca57600080fd5b806334945b3a1461008257806338cd26de1461009c5780633fb5c1cb146100a6575b600080fd5b61008a600281565b60405190815260200160405180910390f35b6100a46100d2565b005b6100a46100b436600461010b565b600055565b6100a46100dc565b61008a60005481565b6100a46100f5565b6100da6100f5565b565b60026000808282546100ee919061013a565b9091555050565b60008054908061010483610153565b9190505550565b60006020828403121561011d57600080fd5b5035919050565b634e487b7160e01b600052601160045260246000fd5b8082018082111561014d5761014d610124565b92915050565b60006001820161016557610165610124565b506001019056fea164736f6c6343000818000a","linkReferences":{}},"methodIdentifiers":{"TWO()":"34945b3a","callIncrement()":"38cd26de","increment()":"d09de08a","incrementByTwoConstant()":"7b74087e","incrementByTwoMagic()":"452707c1","number()":"8381f58a","setNumber(uint256)":"3fb5c1cb"},"id":16}