{"abi":[{"type":"function","name":"calculateAl","inputs":[{"name":"a","type":"uint256","internalType":"uint256"},{"name":"b","type":"uint256","internalType":"uint256"},{"name":"c","type":"uint256","internalType":"uint256"}],"outputs":[],"stateMutability":"nonpayable"},{"type":"function","name":"calculateAlsoCorrect","inputs":[{"name":"a","type":"uint256","internalType":"uint256"},{"name":"b","type":"uint256","internalType":"uint256"},{"name":"c","type":"uint256","internalType":"uint256"},{"name":"d","type":"uint256","internalType":"uint256"}],"outputs":[],"stateMutability":"nonpayable"},{"type":"function","name":"calculateAlsoWrong","inputs":[{"name":"a","type":"uint256","internalType":"uint256"},{"name":"b","type":"uint256","internalType":"uint256"},{"name":"c","type":"uint256","internalType":"uint256"}],"outputs":[],"stateMutability":"nonpayable"},{"type":"function","name":"calculateCorrect","inputs":[{"name":"a","type":"uint256","internalType":"uint256"},{"name":"b","type":"uint256","internalType":"uint256"},{"name":"c","type":"uint256","internalType":"uint256"}],"outputs":[],"stateMutability":"nonpayable"},{"type":"function","name":"calculateStillWrong","inputs":[{"name":"a","type":"uint256","internalType":"uint256"},{"name":"b","type":"uint256","internalType":"uint256"},{"name":"c","type":"uint256","internalType":"uint256"}],"outputs":[],"stateMutability":"nonpayable"},{"type":"function","name":"calculateWrong","inputs":[{"name":"a","type":"uint256","internalType":"uint256"},{"name":"b","type":"uint256","internalType":"uint256"},{"name":"c","type":"uint256","internalType":"uint256"},{"name":"d","type":"uint256","internalType":"uint256"}],"outputs":[],"stateMutability":"nonpayable"},{"type":"function","name":"result","inputs":[],"outputs":[{"name":"","type":"uint256","internalType":"uint256"}],"stateMutability":"view"}],"bytecode":{"object":"0x6080604052348015600f57600080fd5b506102ee8061001f6000396000f3fe608060405234801561001057600080fd5b506004361061007d5760003560e01c8063861952a31161005b578063861952a3146100c55780639497d325146100d8578063ab776160146100eb578063f61fdea7146100fe57600080fd5b806341de45ed1461008257806365372147146100975780636c978794146100b2575b600080fd5b61009561009036600461021b565b610111565b005b6100a060005481565b60405190815260200160405180910390f35b6100956100c036600461021b565b61012e565b6100956100d3366004610247565b610158565b6100956100e6366004610247565b610194565b6100956100f936600461021b565b6101c8565b61009561010c36600461021b565b6101e8565b8061011c838561028f565b61012691906102b1565b600055505050565b808261013a828261028f565b61014491906102b1565b61014e91906102b1565b61012690846102ce565b8061016384846102b1565b61016d83866102b1565b610177919061028f565b61018190866102ce565b61018b91906102b1565b60005550505050565b80836101a0848261028f565b6101aa91906102b1565b6101b4919061028f565b6101be82866102b1565b61018b91906102ce565b80826101d4828261028f565b6101de91906102b1565b61011c90856102ce565b6101f281836102b1565b816101fd84806102b1565b610207919061028f565b61021190856102ce565b61012691906102ce565b60008060006060848603121561023057600080fd5b505081359360208301359350604090920135919050565b6000806000806080858703121561025d57600080fd5b5050823594602084013594506040840135936060013592509050565b634e487b7160e01b600052601160045260246000fd5b6000826102ac57634e487b7160e01b600052601260045260246000fd5b500490565b80820281158282048414176102c8576102c8610279565b92915050565b808201808211156102c8576102c861027956fea164736f6c6343000819000a","linkReferences":{}},"methodIdentifiers":{"calculateAl(uint256,uint256,uint256)":"41de45ed","calculateAlsoCorrect(uint256,uint256,uint256,uint256)":"861952a3","calculateAlsoWrong(uint256,uint256,uint256)":"ab776160","calculateCorrect(uint256,uint256,uint256)":"f61fdea7","calculateStillWrong(uint256,uint256,uint256)":"6c978794","calculateWrong(uint256,uint256,uint256,uint256)":"9497d325","result()":"65372147"},"id":22}