{"abi":[{"type":"constructor","inputs":[{"name":"_uintInitial","type":"uint256","internalType":"uint256"},{"name":"_uint256Initial","type":"uint256","internalType":"uint256"}],"stateMutability":"nonpayable"},{"type":"function","name":"int256Variable","inputs":[],"outputs":[{"name":"","type":"int256","internalType":"int256"}],"stateMutability":"view"},{"type":"function","name":"intVariable","inputs":[],"outputs":[{"name":"","type":"int256","internalType":"int256"}],"stateMutability":"view"},{"type":"function","name":"uint256Variable","inputs":[],"outputs":[{"name":"","type":"uint256","internalType":"uint256"}],"stateMutability":"view"},{"type":"function","name":"uintArray","inputs":[{"name":"","type":"uint256","internalType":"uint256"}],"outputs":[{"name":"","type":"uint256","internalType":"uint256"}],"stateMutability":"view"},{"type":"function","name":"uintVariable","inputs":[],"outputs":[{"name":"","type":"uint256","internalType":"uint256"}],"stateMutability":"view"}],"bytecode":{"object":"0x6080604052348015600f57600080fd5b50604051610145380380610145833981016040819052602c916039565b600091909155600155605c565b60008060408385031215604b57600080fd5b505080516020909101519092909150565b60db8061006a6000396000f3fe6080604052348015600f57600080fd5b506004361060505760003560e01c80630c1c43e41460555780632653fa2d14606f578063820d0e491460775780639ae918c714607f578063eadc3c5c14608e575b600080fd5b605d60035481565b60405190815260200160405180910390f35b605d60005481565b605d60025481565b605d608a36600460b6565b6096565b605d60015481565b6004818154811060a557600080fd5b600091825260209091200154905081565b60006020828403121560c757600080fd5b503591905056fea164736f6c6343000819000a","linkReferences":{}},"methodIdentifiers":{"int256Variable()":"0c1c43e4","intVariable()":"820d0e49","uint256Variable()":"eadc3c5c","uintArray(uint256)":"9ae918c7","uintVariable()":"2653fa2d"},"id":17}