{"abi":[{"type":"function","name":"foo","inputs":[{"name":"bar","type":"address","internalType":"address"}],"outputs":[],"stateMutability":"pure"},{"type":"function","name":"foo2","inputs":[{"name":"bar","type":"address","internalType":"address"}],"outputs":[],"stateMutability":"pure"}],"bytecode":{"object":"0x608060405260008055600060015560006002556000600355600060045534801561002857600080fd5b50610208806100386000396000f3fe608060405234801561001057600080fd5b50600436106100365760003560e01c80638d35a6f81461003b578063fdf80bda14610050575b600080fd5b61004e610049366004610181565b610063565b005b61004e61005e366004610181565b61016b565b60006040518060600160405280602581526020016101d760259139905060006040518060400160405280601f81526020017f2f2a2074686973206973206e6f742022202f2a6120636f6d6d656e74202a2f0081525090506000806059905060006040518060400160405280601481526020017339b239b3b0b3101010101010101030b23330b23360611b81525090506000806000806040518060600160405280602581526020016101b26025913960408051808201909152601f81527f2f2a2074686973206973206e6f742027202f2a6120636f6d6d656e74202a2f00602082015290915060006001600160a01b038c1661015d57600080fd5b505050505050505050505050565b6001600160a01b03811661017e57600080fd5b50565b60006020828403121561019357600080fd5b81356001600160a01b03811681146101aa57600080fd5b939250505056fe2f2a2074686973206973206e6f742061205c272073696d706c6520636f6d6d656e74202a2f2f2a2074686973206973206e6f742061205c222073696d706c6520636f6d6d656e74202a2fa164736f6c6343000814000a","linkReferences":{}},"methodIdentifiers":{"foo(address)":"fdf80bda","foo2(address)":"8d35a6f8"},"id":0}